{
  "contractName": "MerkleTree",
  "abi": [
    {
      "inputs": [
        {
          "internalType": "address",
          "name": "_hasher",
          "type": "address"
        }
      ],
      "stateMutability": "nonpayable",
      "type": "constructor"
    },
    {
      "anonymous": false,
      "inputs": [
        {
          "indexed": false,
          "internalType": "uint256",
          "name": "leaf",
          "type": "uint256"
        },
        {
          "indexed": false,
          "internalType": "uint32",
          "name": "leaf_index",
          "type": "uint32"
        }
      ],
      "name": "LeafAdded",
      "type": "event"
    },
    {
      "inputs": [],
      "name": "current_root",
      "outputs": [
        {
          "internalType": "uint256",
          "name": "",
          "type": "uint256"
        }
      ],
      "stateMutability": "view",
      "type": "function"
    },
    {
      "inputs": [
        {
          "internalType": "uint256",
          "name": "",
          "type": "uint256"
        }
      ],
      "name": "filled_subtrees",
      "outputs": [
        {
          "internalType": "uint256",
          "name": "",
          "type": "uint256"
        }
      ],
      "stateMutability": "view",
      "type": "function"
    },
    {
      "inputs": [],
      "name": "hasher",
      "outputs": [
        {
          "internalType": "contract IHasher",
          "name": "",
          "type": "address"
        }
      ],
      "stateMutability": "view",
      "type": "function"
    },
    {
      "inputs": [],
      "name": "next_index",
      "outputs": [
        {
          "internalType": "uint32",
          "name": "",
          "type": "uint32"
        }
      ],
      "stateMutability": "view",
      "type": "function"
    },
    {
      "inputs": [
        {
          "internalType": "uint256",
          "name": "",
          "type": "uint256"
        }
      ],
      "name": "roots",
      "outputs": [
        {
          "internalType": "uint256",
          "name": "",
          "type": "uint256"
        }
      ],
      "stateMutability": "view",
      "type": "function"
    },
    {
      "inputs": [
        {
          "internalType": "uint256",
          "name": "",
          "type": "uint256"
        }
      ],
      "name": "zeros",
      "outputs": [
        {
          "internalType": "uint256",
          "name": "",
          "type": "uint256"
        }
      ],
      "stateMutability": "view",
      "type": "function"
    },
    {
      "inputs": [
        {
          "internalType": "uint256",
          "name": "_left",
          "type": "uint256"
        },
        {
          "internalType": "uint256",
          "name": "_right",
          "type": "uint256"
        }
      ],
      "name": "hashLeftRight",
      "outputs": [
        {
          "internalType": "uint256",
          "name": "",
          "type": "uint256"
        }
      ],
      "stateMutability": "view",
      "type": "function"
    },
    {
      "inputs": [],
      "name": "getLastRoot",
      "outputs": [
        {
          "internalType": "uint256",
          "name": "",
          "type": "uint256"
        }
      ],
      "stateMutability": "view",
      "type": "function"
    }
  ],
  "bytecode": "0x60a060405260006001556000600460006101000a81548163ffffffff021916908363ffffffff1602179055503480156200003857600080fd5b50604051620013983803806200139883398181016040528101906200005e91906200065f565b8073ffffffffffffffffffffffffffffffffffffffff1660808173ffffffffffffffffffffffffffffffffffffffff16815250506003604051602001620000a590620006ec565b6040516020818303038152906040528051906020012060001c908060018154018082558091505060019003906000526020600020016000909190919091505560026003600081548110620000fe57620000fd62000703565b5b906000526020600020015490806001815401808255809150506001900390600052602060002001600090919091909150556000600190505b602060ff168160ff16101562000247576003620001be60036001846200015d91906200076e565b60ff168154811062000174576200017362000703565b5b906000526020600020015460036001856200019091906200076e565b60ff1681548110620001a757620001a662000703565b5b90600052602060002001546200035560201b60201c565b9080600181540180825580915050600190039060005260206000200160009091909190915055600260038260ff16815481106200020057620001ff62000703565b5b9060005260206000200154908060018154018082558091505060019003906000526020600020016000909190919091505580806200023e90620007aa565b91505062000136565b50601060ff1667ffffffffffffffff811115620002695762000268620007d8565b5b604051908082528060200260200182016040528015620002985781602001602082028036833780820191505090505b5060009080519060200190620002b092919062000584565b5062000329600360016020620002c791906200076e565b60ff1681548110620002de57620002dd62000703565b5b9060005260206000200154600360016020620002fb91906200076e565b60ff168154811062000312576200031162000703565b5b90600052602060002001546200035560201b60201c565b6000808154811062000340576200033f62000703565b5b90600052602060002001819055505062000a6e565b60007f30644e72e131a029b85045b68181585d2833e84879b9709143e1f593f00000018310620003bc576040517f08c379a0000000000000000000000000000000000000000000000000000000008152600401620003b39062000868565b60405180910390fd5b7f30644e72e131a029b85045b68181585d2833e84879b9709143e1f593f0000001821062000421576040517f08c379a0000000000000000000000000000000000000000000000000000000008152600401620004189062000900565b60405180910390fd5b6000839050600060805173ffffffffffffffffffffffffffffffffffffffff16633f1a1187838360006040518463ffffffff1660e01b81526004016200046a939291906200098a565b6040805180830381865afa15801562000487573d6000803e3d6000fd5b505050506040513d601f19601f82011682018060405250810190620004ad9190620009f8565b80925081935050507f30644e72e131a029b85045b68181585d2833e84879b9709143e1f593f000000180620004e757620004e662000a3f565b5b848308915060805173ffffffffffffffffffffffffffffffffffffffff16633f1a1187838360006040518463ffffffff1660e01b81526004016200052e939291906200098a565b6040805180830381865afa1580156200054b573d6000803e3d6000fd5b505050506040513d601f19601f82011682018060405250810190620005719190620009f8565b8092508193505050819250505092915050565b828054828255906000526020600020908101928215620005c3579160200282015b82811115620005c2578251825591602001919060010190620005a5565b5b509050620005d29190620005d6565b5090565b5b80821115620005f1576000816000905550600101620005d7565b5090565b600080fd5b600073ffffffffffffffffffffffffffffffffffffffff82169050919050565b60006200062782620005fa565b9050919050565b62000639816200061a565b81146200064557600080fd5b50565b60008151905062000659816200062e565b92915050565b600060208284031215620006785762000677620005f5565b5b6000620006888482850162000648565b91505092915050565b600081905092915050565b7f506875205a4b50207661204b68616e6720546f726e61646f0000000000000000600082015250565b6000620006d460188362000691565b9150620006e1826200069c565b601882019050919050565b6000620006f982620006c5565b9150819050919050565b7f4e487b7100000000000000000000000000000000000000000000000000000000600052603260045260246000fd5b600060ff82169050919050565b7f4e487b7100000000000000000000000000000000000000000000000000000000600052601160045260246000fd5b60006200077b8262000732565b9150620007888362000732565b9250828203905060ff811115620007a457620007a36200073f565b5b92915050565b6000620007b78262000732565b915060ff8203620007cd57620007cc6200073f565b5b600182019050919050565b7f4e487b7100000000000000000000000000000000000000000000000000000000600052604160045260246000fd5b600082825260208201905092915050565b7f5f6c6566742073686f756c6420626520696e7369646520746865206669656c64600082015250565b60006200085060208362000807565b91506200085d8262000818565b602082019050919050565b60006020820190508181036000830152620008838162000841565b9050919050565b7f5f72696768742073686f756c6420626520696e7369646520746865206669656c60008201527f6400000000000000000000000000000000000000000000000000000000000000602082015250565b6000620008e860218362000807565b9150620008f5826200088a565b604082019050919050565b600060208201905081810360008301526200091b81620008d9565b9050919050565b6000819050919050565b620009378162000922565b82525050565b6000819050919050565b6000819050919050565b6000620009726200096c62000966846200093d565b62000947565b62000922565b9050919050565b620009848162000951565b82525050565b6000606082019050620009a160008301866200092c565b620009b060208301856200092c565b620009bf604083018462000979565b949350505050565b620009d28162000922565b8114620009de57600080fd5b50565b600081519050620009f281620009c7565b92915050565b6000806040838503121562000a125762000a11620005f5565b5b600062000a2285828601620009e1565b925050602062000a3585828601620009e1565b9150509250929050565b7f4e487b7100000000000000000000000000000000000000000000000000000000600052601260045260246000fd5b60805161090062000a98600039600081816102940152818161036e01526104ce01526109006000f3fe608060405234801561001057600080fd5b50600436106100885760003560e01c8063ba70f7571161005b578063ba70f75714610129578063c2b40ae414610147578063e829558814610177578063ed33639f146101a757610088565b80635bb939951461008d57806365576fab146100bd5780638b145d6d146100db578063a9e5a7f5146100f9575b600080fd5b6100a760048036038101906100a2919061052b565b6101c5565b6040516100b4919061057a565b60405180910390f35b6100c561041d565b6040516100d291906105b4565b60405180910390f35b6100e3610433565b6040516100f0919061057a565b60405180910390f35b610113600480360381019061010e91906105cf565b610439565b604051610120919061057a565b60405180910390f35b61013161045d565b60405161013e919061057a565b60405180910390f35b610161600480360381019061015c91906105cf565b610484565b60405161016e919061057a565b60405180910390f35b610191600480360381019061018c91906105cf565b6104a8565b60405161019e919061057a565b60405180910390f35b6101af6104cc565b6040516101bc919061067b565b60405180910390f35b60007f30644e72e131a029b85045b68181585d2833e84879b9709143e1f593f00000018310610229576040517f08c379a0000000000000000000000000000000000000000000000000000000008152600401610220906106f3565b60405180910390fd5b7f30644e72e131a029b85045b68181585d2833e84879b9709143e1f593f0000001821061028b576040517f08c379a000000000000000000000000000000000000000000000000000000000815260040161028290610785565b60405180910390fd5b600083905060007f000000000000000000000000000000000000000000000000000000000000000073ffffffffffffffffffffffffffffffffffffffff16633f1a1187838360006040518463ffffffff1660e01b81526004016102f0939291906107e0565b6040805180830381865afa15801561030c573d6000803e3d6000fd5b505050506040513d601f19601f82011682018060405250810190610330919061082c565b80925081935050507f30644e72e131a029b85045b68181585d2833e84879b9709143e1f593f0000001806103675761036661086c565b5b84830891507f000000000000000000000000000000000000000000000000000000000000000073ffffffffffffffffffffffffffffffffffffffff16633f1a1187838360006040518463ffffffff1660e01b81526004016103ca939291906107e0565b6040805180830381865afa1580156103e6573d6000803e3d6000fd5b505050506040513d601f19601f8201168201806040525081019061040a919061082c565b8092508193505050819250505092915050565b600460009054906101000a900463ffffffff1681565b60015481565b6002818154811061044957600080fd5b906000526020600020016000915090505481565b600080600154815481106104745761047361089b565b5b9060005260206000200154905090565b6000818154811061049457600080fd5b906000526020600020016000915090505481565b600381815481106104b857600080fd5b906000526020600020016000915090505481565b7f000000000000000000000000000000000000000000000000000000000000000081565b600080fd5b6000819050919050565b610508816104f5565b811461051357600080fd5b50565b600081359050610525816104ff565b92915050565b60008060408385031215610542576105416104f0565b5b600061055085828601610516565b925050602061056185828601610516565b9150509250929050565b610574816104f5565b82525050565b600060208201905061058f600083018461056b565b92915050565b600063ffffffff82169050919050565b6105ae81610595565b82525050565b60006020820190506105c960008301846105a5565b92915050565b6000602082840312156105e5576105e46104f0565b5b60006105f384828501610516565b91505092915050565b600073ffffffffffffffffffffffffffffffffffffffff82169050919050565b6000819050919050565b600061064161063c610637846105fc565b61061c565b6105fc565b9050919050565b600061065382610626565b9050919050565b600061066582610648565b9050919050565b6106758161065a565b82525050565b6000602082019050610690600083018461066c565b92915050565b600082825260208201905092915050565b7f5f6c6566742073686f756c6420626520696e7369646520746865206669656c64600082015250565b60006106dd602083610696565b91506106e8826106a7565b602082019050919050565b6000602082019050818103600083015261070c816106d0565b9050919050565b7f5f72696768742073686f756c6420626520696e7369646520746865206669656c60008201527f6400000000000000000000000000000000000000000000000000000000000000602082015250565b600061076f602183610696565b915061077a82610713565b604082019050919050565b6000602082019050818103600083015261079e81610762565b9050919050565b6000819050919050565b60006107ca6107c56107c0846107a5565b61061c565b6104f5565b9050919050565b6107da816107af565b82525050565b60006060820190506107f5600083018661056b565b610802602083018561056b565b61080f60408301846107d1565b949350505050565b600081519050610826816104ff565b92915050565b60008060408385031215610843576108426104f0565b5b600061085185828601610817565b925050602061086285828601610817565b9150509250929050565b7f4e487b7100000000000000000000000000000000000000000000000000000000600052601260045260246000fd5b7f4e487b7100000000000000000000000000000000000000000000000000000000600052603260045260246000fdfea2646970667358221220512ed82791de6e5ca178da35c6be65fd9608a3a55afa10554e2792ba61403cf564736f6c63430008130033",
  "immutableReferences": {
    "53": [
      {
        "length": 32,
        "start": 660
      },
      {
        "length": 32,
        "start": 878
      },
      {
        "length": 32,
        "start": 1230
      }
    ]
  },
  "source": "pragma solidity ^0.8.19;\n\ninterface IHasher {\n  function MiMCSponge(uint256 in_xL, uint256 in_xR, uint256 k) external pure returns (uint256 xL, uint256 xR);\n}\n\ncontract MerkleTree {\n    uint8 constant LEVELS = 32;\n    uint256 constant FIELD_SIZE = 21888242871839275222246405745257275088548364400416034343698204186575808495617;\n    // So that when the user generate the proof,\n    // and there are some other deposit, the user's root is still valid\n    uint8 constant ROOT_HISTORY_SIZE = 16;\n    uint256 constant zero_value = uint256(keccak256(abi.encodePacked(\"Phu ZKP va Khang Tornado\")));\n    uint256[] public roots;\n    uint256 public current_root = 0;\n\n    uint256[] public filled_subtrees;\n    uint256[] public zeros;\n\n    uint32 public next_index = 0;\n    IHasher public immutable hasher;\n\n    event LeafAdded(uint256 leaf, uint32 leaf_index);\n\n    constructor(address _hasher) {\n        hasher = IHasher(_hasher);\n        zeros.push(zero_value);\n        filled_subtrees.push(zeros[0]);\n\n        for (uint8 i = 1; i < LEVELS; i++) {\n            zeros.push(hashLeftRight(zeros[i - 1], zeros[i - 1]));\n            filled_subtrees.push(zeros[i]);\n        }\n\n        roots = new uint256[](ROOT_HISTORY_SIZE);\n        roots[0] = hashLeftRight(zeros[LEVELS - 1], zeros[LEVELS - 1]);\n    }\n\n    function hashLeftRight(\n        uint256 _left,\n        uint256 _right\n    ) public view returns (uint256) {\n        require(_left < FIELD_SIZE, \"_left should be inside the field\");\n        require(_right < FIELD_SIZE, \"_right should be inside the field\");\n        uint256 R = _left;\n        uint256 C = 0;\n        (R, C) = hasher.MiMCSponge(R, C, 0);\n        R = addmod(R, _right, FIELD_SIZE);\n        (R, C) = hasher.MiMCSponge(R, C, 0);\n        return R;\n    }\n\n    function insert(uint256 leaf) internal {\n        uint32 leaf_index = next_index;\n        uint32 current_index = next_index;\n        next_index += 1;\n\n        uint256 current_level_hash = leaf;\n        uint256 left;\n        uint256 right;\n\n        for (uint8 i = 0; i < LEVELS; i++) {\n            if (current_index % 2 == 0) {\n                left = current_level_hash;\n                right = zeros[i];\n\n                filled_subtrees[i] = current_level_hash;\n            } else {\n                left = filled_subtrees[i];\n                right = current_level_hash;\n            }\n\n            current_level_hash = hashLeftRight(left, right);\n\n            current_index /= 2;\n        }\n\n        current_root = (current_root + 1) % ROOT_HISTORY_SIZE;\n        roots[current_root] = current_level_hash;\n\n        emit LeafAdded(leaf, leaf_index);\n    }\n\n    function isKnownRoot(uint256 _root) internal view returns (bool) {\n        if (_root == 0) {\n            return false;\n        }\n        for (uint8 i = 0; i < ROOT_HISTORY_SIZE; i++) {\n            if (_root == roots[i]) {\n                return true;\n            }\n        }\n        return false;\n    }\n\n    function getLastRoot() public view returns (uint256) {\n        return roots[current_root];\n    }\n}\n",
  "sourcePath": "/Users/nguyenthieukhang/Documents/Thesis---ZKP/contracts/MerkleTree.sol",
  "compiler": {
    "name": "solc",
    "version": "0.8.19+commit.7dd6d404.Emscripten.clang"
  },
  "schemaVersion": "3.4.14",
  "updatedAt": "2023-06-21T01:32:25.100Z",
  "devdoc": {
    "kind": "dev",
    "methods": {},
    "version": 1
  },
  "userdoc": {
    "kind": "user",
    "methods": {},
    "version": 1
  }
}