{
  "contractName": "Mixer",
  "abi": [
    {
      "inputs": [
        {
          "internalType": "address",
          "name": "_verifier",
          "type": "address"
        },
        {
          "internalType": "address",
          "name": "_hasher",
          "type": "address"
        }
      ],
      "stateMutability": "nonpayable",
      "type": "constructor"
    },
    {
      "anonymous": false,
      "inputs": [
        {
          "indexed": false,
          "internalType": "address",
          "name": "from",
          "type": "address"
        },
        {
          "indexed": false,
          "internalType": "uint256",
          "name": "commitment",
          "type": "uint256"
        }
      ],
      "name": "Deposit",
      "type": "event"
    },
    {
      "anonymous": false,
      "inputs": [
        {
          "indexed": false,
          "internalType": "uint256",
          "name": "leaf",
          "type": "uint256"
        },
        {
          "indexed": false,
          "internalType": "uint32",
          "name": "leaf_index",
          "type": "uint32"
        }
      ],
      "name": "LeafAdded",
      "type": "event"
    },
    {
      "anonymous": false,
      "inputs": [
        {
          "indexed": false,
          "internalType": "address",
          "name": "to",
          "type": "address"
        },
        {
          "indexed": false,
          "internalType": "uint256",
          "name": "nullifier",
          "type": "uint256"
        }
      ],
      "name": "Withdraw",
      "type": "event"
    },
    {
      "inputs": [],
      "name": "current_root",
      "outputs": [
        {
          "internalType": "uint256",
          "name": "",
          "type": "uint256"
        }
      ],
      "stateMutability": "view",
      "type": "function",
      "constant": true
    },
    {
      "inputs": [
        {
          "internalType": "uint256",
          "name": "",
          "type": "uint256"
        }
      ],
      "name": "filled_subtrees",
      "outputs": [
        {
          "internalType": "uint256",
          "name": "",
          "type": "uint256"
        }
      ],
      "stateMutability": "view",
      "type": "function",
      "constant": true
    },
    {
      "inputs": [],
      "name": "getLastRoot",
      "outputs": [
        {
          "internalType": "uint256",
          "name": "",
          "type": "uint256"
        }
      ],
      "stateMutability": "view",
      "type": "function",
      "constant": true
    },
    {
      "inputs": [
        {
          "internalType": "uint256",
          "name": "_left",
          "type": "uint256"
        },
        {
          "internalType": "uint256",
          "name": "_right",
          "type": "uint256"
        }
      ],
      "name": "hashLeftRight",
      "outputs": [
        {
          "internalType": "uint256",
          "name": "",
          "type": "uint256"
        }
      ],
      "stateMutability": "view",
      "type": "function",
      "constant": true
    },
    {
      "inputs": [],
      "name": "hasher",
      "outputs": [
        {
          "internalType": "contract IHasher",
          "name": "",
          "type": "address"
        }
      ],
      "stateMutability": "view",
      "type": "function",
      "constant": true
    },
    {
      "inputs": [],
      "name": "next_index",
      "outputs": [
        {
          "internalType": "uint32",
          "name": "",
          "type": "uint32"
        }
      ],
      "stateMutability": "view",
      "type": "function",
      "constant": true
    },
    {
      "inputs": [
        {
          "internalType": "uint256",
          "name": "",
          "type": "uint256"
        }
      ],
      "name": "nullifiers",
      "outputs": [
        {
          "internalType": "bool",
          "name": "",
          "type": "bool"
        }
      ],
      "stateMutability": "view",
      "type": "function",
      "constant": true
    },
    {
      "inputs": [
        {
          "internalType": "uint256",
          "name": "",
          "type": "uint256"
        }
      ],
      "name": "roots",
      "outputs": [
        {
          "internalType": "uint256",
          "name": "",
          "type": "uint256"
        }
      ],
      "stateMutability": "view",
      "type": "function",
      "constant": true
    },
    {
      "inputs": [],
      "name": "transferValue",
      "outputs": [
        {
          "internalType": "uint256",
          "name": "",
          "type": "uint256"
        }
      ],
      "stateMutability": "view",
      "type": "function",
      "constant": true
    },
    {
      "inputs": [
        {
          "internalType": "uint256",
          "name": "",
          "type": "uint256"
        }
      ],
      "name": "zeros",
      "outputs": [
        {
          "internalType": "uint256",
          "name": "",
          "type": "uint256"
        }
      ],
      "stateMutability": "view",
      "type": "function",
      "constant": true
    },
    {
      "inputs": [
        {
          "internalType": "uint256",
          "name": "commitment",
          "type": "uint256"
        }
      ],
      "name": "deposit",
      "outputs": [],
      "stateMutability": "payable",
      "type": "function",
      "payable": true
    },
    {
      "inputs": [
        {
          "internalType": "uint256[10]",
          "name": "proof",
          "type": "uint256[10]"
        },
        {
          "internalType": "uint256",
          "name": "root",
          "type": "uint256"
        },
        {
          "internalType": "uint256",
          "name": "nullifier",
          "type": "uint256"
        },
        {
          "internalType": "address payable",
          "name": "receiver",
          "type": "address"
        }
      ],
      "name": "withdraw",
      "outputs": [],
      "stateMutability": "nonpayable",
      "type": "function"
    }
  ],
  "bytecode": "0x60a060405260006001556000600460006101000a81548163ffffffff021916908363ffffffff1602179055503480156200003857600080fd5b50604051620024473803806200244783398181016040528101906200005e9190620006a3565b808073ffffffffffffffffffffffffffffffffffffffff1660808173ffffffffffffffffffffffffffffffffffffffff16815250506003604051602001620000a69062000745565b6040516020818303038152906040528051906020012060001c908060018154018082558091505060019003906000526020600020016000909190919091505560026003600081548110620000ff57620000fe6200075c565b5b906000526020600020015490806001815401808255809150506001900390600052602060002001600090919091909150556000600190505b601060ff168160ff16101562000248576003620001bf60036001846200015e9190620007c7565b60ff16815481106200017557620001746200075c565b5b90600052602060002001546003600185620001919190620007c7565b60ff1681548110620001a857620001a76200075c565b5b90600052602060002001546200039960201b60201c565b9080600181540180825580915050600190039060005260206000200160009091909190915055600260038260ff16815481106200020157620002006200075c565b5b9060005260206000200154908060018154018082558091505060019003906000526020600020016000909190919091505580806200023f9062000803565b91505062000137565b50601060ff1667ffffffffffffffff8111156200026a576200026962000831565b5b604051908082528060200260200182016040528015620002995781602001602082028036833780820191505090505b5060009080519060200190620002b1929190620005c8565b506200032a600360016010620002c89190620007c7565b60ff1681548110620002df57620002de6200075c565b5b9060005260206000200154600360016010620002fc9190620007c7565b60ff16815481106200031357620003126200075c565b5b90600052602060002001546200039960201b60201c565b600080815481106200034157620003406200075c565b5b90600052602060002001819055505081600660006101000a81548173ffffffffffffffffffffffffffffffffffffffff021916908373ffffffffffffffffffffffffffffffffffffffff160217905550505062000ac7565b60007f30644e72e131a029b85045b68181585d2833e84879b9709143e1f593f0000001831062000400576040517f08c379a0000000000000000000000000000000000000000000000000000000008152600401620003f790620008c1565b60405180910390fd5b7f30644e72e131a029b85045b68181585d2833e84879b9709143e1f593f0000001821062000465576040517f08c379a00000000000000000000000000000000000000000000000000000000081526004016200045c9062000959565b60405180910390fd5b6000839050600060805173ffffffffffffffffffffffffffffffffffffffff16633f1a1187838360006040518463ffffffff1660e01b8152600401620004ae93929190620009e3565b6040805180830381865afa158015620004cb573d6000803e3d6000fd5b505050506040513d601f19601f82011682018060405250810190620004f1919062000a51565b80925081935050507f30644e72e131a029b85045b68181585d2833e84879b9709143e1f593f0000001806200052b576200052a62000a98565b5b848308915060805173ffffffffffffffffffffffffffffffffffffffff16633f1a1187838360006040518463ffffffff1660e01b81526004016200057293929190620009e3565b6040805180830381865afa1580156200058f573d6000803e3d6000fd5b505050506040513d601f19601f82011682018060405250810190620005b5919062000a51565b8092508193505050819250505092915050565b82805482825590600052602060002090810192821562000607579160200282015b8281111562000606578251825591602001919060010190620005e9565b5b5090506200061691906200061a565b5090565b5b80821115620006355760008160009055506001016200061b565b5090565b600080fd5b600073ffffffffffffffffffffffffffffffffffffffff82169050919050565b60006200066b826200063e565b9050919050565b6200067d816200065e565b81146200068957600080fd5b50565b6000815190506200069d8162000672565b92915050565b60008060408385031215620006bd57620006bc62000639565b5b6000620006cd858286016200068c565b9250506020620006e0858286016200068c565b9150509250929050565b600081905092915050565b7f506875205a4b50207661204b68616e6720546f726e61646f0000000000000000600082015250565b60006200072d601883620006ea565b91506200073a82620006f5565b601882019050919050565b600062000752826200071e565b9150819050919050565b7f4e487b7100000000000000000000000000000000000000000000000000000000600052603260045260246000fd5b600060ff82169050919050565b7f4e487b7100000000000000000000000000000000000000000000000000000000600052601160045260246000fd5b6000620007d4826200078b565b9150620007e1836200078b565b9250828203905060ff811115620007fd57620007fc62000798565b5b92915050565b600062000810826200078b565b915060ff820362000826576200082562000798565b5b600182019050919050565b7f4e487b7100000000000000000000000000000000000000000000000000000000600052604160045260246000fd5b600082825260208201905092915050565b7f5f6c6566742073686f756c6420626520696e7369646520746865206669656c64600082015250565b6000620008a960208362000860565b9150620008b68262000871565b602082019050919050565b60006020820190508181036000830152620008dc816200089a565b9050919050565b7f5f72696768742073686f756c6420626520696e7369646520746865206669656c60008201527f6400000000000000000000000000000000000000000000000000000000000000602082015250565b60006200094160218362000860565b91506200094e82620008e3565b604082019050919050565b60006020820190508181036000830152620009748162000932565b9050919050565b6000819050919050565b62000990816200097b565b82525050565b6000819050919050565b6000819050919050565b6000620009cb620009c5620009bf8462000996565b620009a0565b6200097b565b9050919050565b620009dd81620009aa565b82525050565b6000606082019050620009fa600083018662000985565b62000a09602083018562000985565b62000a186040830184620009d2565b949350505050565b62000a2b816200097b565b811462000a3757600080fd5b50565b60008151905062000a4b8162000a20565b92915050565b6000806040838503121562000a6b5762000a6a62000639565b5b600062000a7b8582860162000a3a565b925050602062000a8e8582860162000a3a565b9150509250929050565b7f4e487b7100000000000000000000000000000000000000000000000000000000600052601260045260246000fd5b60805161195662000af1600039600081816103cd015281816104a70152610a6c01526119566000f3fe6080604052600436106100a75760003560e01c8063ba70f75711610064578063ba70f757146101c3578063be240db6146101ee578063c2b40ae414610217578063d21e82ab14610254578063e829558814610291578063ed33639f146102ce576100a7565b80632d9ed8d5146100ac5780635bb93995146100d757806365576fab146101145780638b145d6d1461013f578063a9e5a7f51461016a578063b6b55f25146101a7575b600080fd5b3480156100b857600080fd5b506100c16102f9565b6040516100ce9190610cef565b60405180910390f35b3480156100e357600080fd5b506100fe60048036038101906100f99190610d45565b6102fe565b60405161010b9190610cef565b60405180910390f35b34801561012057600080fd5b50610129610556565b6040516101369190610da4565b60405180910390f35b34801561014b57600080fd5b5061015461056c565b6040516101619190610cef565b60405180910390f35b34801561017657600080fd5b50610191600480360381019061018c9190610dbf565b610572565b60405161019e9190610cef565b60405180910390f35b6101c160048036038101906101bc9190610dbf565b610596565b005b3480156101cf57600080fd5b506101d861061e565b6040516101e59190610cef565b60405180910390f35b3480156101fa57600080fd5b5061021560048036038101906102109190610f91565b610645565b005b34801561022357600080fd5b5061023e60048036038101906102399190610dbf565b610a02565b60405161024b9190610cef565b60405180910390f35b34801561026057600080fd5b5061027b60048036038101906102769190610dbf565b610a26565b6040516102889190611017565b60405180910390f35b34801561029d57600080fd5b506102b860048036038101906102b39190610dbf565b610a46565b6040516102c59190610cef565b60405180910390f35b3480156102da57600080fd5b506102e3610a6a565b6040516102f09190611091565b60405180910390f35b600181565b60007f30644e72e131a029b85045b68181585d2833e84879b9709143e1f593f00000018310610362576040517f08c379a000000000000000000000000000000000000000000000000000000000815260040161035990611109565b60405180910390fd5b7f30644e72e131a029b85045b68181585d2833e84879b9709143e1f593f000000182106103c4576040517f08c379a00000000000000000000000000000000000000000000000000000000081526004016103bb9061119b565b60405180910390fd5b600083905060007f000000000000000000000000000000000000000000000000000000000000000073ffffffffffffffffffffffffffffffffffffffff16633f1a1187838360006040518463ffffffff1660e01b8152600401610429939291906111f6565b6040805180830381865afa158015610445573d6000803e3d6000fd5b505050506040513d601f19601f820116820180604052508101906104699190611242565b80925081935050507f30644e72e131a029b85045b68181585d2833e84879b9709143e1f593f0000001806104a05761049f611282565b5b84830891507f000000000000000000000000000000000000000000000000000000000000000073ffffffffffffffffffffffffffffffffffffffff16633f1a1187838360006040518463ffffffff1660e01b8152600401610503939291906111f6565b6040805180830381865afa15801561051f573d6000803e3d6000fd5b505050506040513d601f19601f820116820180604052508101906105439190611242565b8092508193505050819250505092915050565b600460009054906101000a900463ffffffff1681565b60015481565b6002818154811061058257600080fd5b906000526020600020016000915090505481565b600134146105d9576040517f08c379a00000000000000000000000000000000000000000000000000000000081526004016105d090611323565b60405180910390fd5b6105e281610a8e565b7fe1fffcc4923d04b559f4d29a8bfc6cda04eb5b0d3c460751c2402c5c5cc9109c3382604051610613929190611364565b60405180910390a150565b600080600154815481106106355761063461138d565b5b9060005260206000200154905090565b6005600083815260200190815260200160002060009054906101000a900460ff16156106a6576040517f08c379a000000000000000000000000000000000000000000000000000000000815260040161069d90611408565b60405180910390fd5b6106af83610c62565b6106ee576040517f08c379a00000000000000000000000000000000000000000000000000000000081526004016106e590611474565b60405180910390fd5b60006040518060400160405280866000600a811061070f5761070e61138d565b5b60200201518152602001866001600a811061072d5761072c61138d565b5b60200201518152509050600060405180604001604052806040518060400160405280896002600a81106107635761076261138d565b5b60200201518152602001896003600a81106107815761078061138d565b5b602002015181525081526020016040518060400160405280896004600a81106107ad576107ac61138d565b5b60200201518152602001896005600a81106107cb576107ca61138d565b5b6020020151815250815250905060006040518060400160405280886006600a81106107f9576107f861138d565b5b60200201518152602001886007600a81106108175761081661138d565b5b6020020151815250905060006040518060400160405280896008600a81106108425761084161138d565b5b60200201518152602001896009600a81106108605761085f61138d565b5b60200201518152509050600660009054906101000a900473ffffffffffffffffffffffffffffffffffffffff1673ffffffffffffffffffffffffffffffffffffffff1663f5c9d69e858585856040518563ffffffff1660e01b81526004016108cb949392919061163d565b602060405180830381865afa1580156108e8573d6000803e3d6000fd5b505050506040513d601f19601f8201168201806040525081019061090c91906116b0565b61094b576040517f08c379a000000000000000000000000000000000000000000000000000000000815260040161094290611729565b60405180910390fd5b60016005600088815260200190815260200160002060006101000a81548160ff0219169083151502179055508473ffffffffffffffffffffffffffffffffffffffff166108fc60019081150290604051600060405180830381858888f193505050501580156109be573d6000803e3d6000fd5b507f884edad9ce6fa2440d8a54cc123490eb96d2768479d49ff9c7366125a942436485876040516109f092919061176a565b60405180910390a15050505050505050565b60008181548110610a1257600080fd5b906000526020600020016000915090505481565b60056020528060005260406000206000915054906101000a900460ff1681565b60038181548110610a5657600080fd5b906000526020600020016000915090505481565b7f000000000000000000000000000000000000000000000000000000000000000081565b6000600460009054906101000a900463ffffffff1690506000600460009054906101000a900463ffffffff1690506001600460008282829054906101000a900463ffffffff16610ade91906117c2565b92506101000a81548163ffffffff021916908363ffffffff160217905550600083905060008060005b601060ff168160ff161015610bd8576000600286610b2591906117fa565b63ffffffff1603610b825783925060038160ff1681548110610b4a57610b4961138d565b5b906000526020600020015491508360028260ff1681548110610b6f57610b6e61138d565b5b9060005260206000200181905550610baa565b60028160ff1681548110610b9957610b9861138d565b5b906000526020600020015492508391505b610bb483836102fe565b9350600285610bc3919061182b565b94508080610bd090611869565b915050610b07565b50601060ff1660018054610bec9190611892565b610bf691906118c6565b60018190555082600060015481548110610c1357610c1261138d565b5b90600052602060002001819055507f5239bb93af7f361e6f6e808a345a919068a2c5b1b6e7fb5bc8892b744e183fb38686604051610c529291906118f7565b60405180910390a1505050505050565b6000808203610c745760009050610cd1565b60005b601060ff168160ff161015610ccb5760008160ff1681548110610c9d57610c9c61138d565b5b90600052602060002001548303610cb8576001915050610cd1565b8080610cc390611869565b915050610c77565b50600090505b919050565b6000819050919050565b610ce981610cd6565b82525050565b6000602082019050610d046000830184610ce0565b92915050565b6000604051905090565b600080fd5b610d2281610cd6565b8114610d2d57600080fd5b50565b600081359050610d3f81610d19565b92915050565b60008060408385031215610d5c57610d5b610d14565b5b6000610d6a85828601610d30565b9250506020610d7b85828601610d30565b9150509250929050565b600063ffffffff82169050919050565b610d9e81610d85565b82525050565b6000602082019050610db96000830184610d95565b92915050565b600060208284031215610dd557610dd4610d14565b5b6000610de384828501610d30565b91505092915050565b600080fd5b6000601f19601f8301169050919050565b7f4e487b7100000000000000000000000000000000000000000000000000000000600052604160045260246000fd5b610e3a82610df1565b810181811067ffffffffffffffff82111715610e5957610e58610e02565b5b80604052505050565b6000610e6c610d0a565b9050610e788282610e31565b919050565b600067ffffffffffffffff821115610e9857610e97610e02565b5b602082029050919050565b600080fd5b6000610ebb610eb684610e7d565b610e62565b90508060208402830185811115610ed557610ed4610ea3565b5b835b81811015610efe5780610eea8882610d30565b845260208401935050602081019050610ed7565b5050509392505050565b600082601f830112610f1d57610f1c610dec565b5b600a610f2a848285610ea8565b91505092915050565b600073ffffffffffffffffffffffffffffffffffffffff82169050919050565b6000610f5e82610f33565b9050919050565b610f6e81610f53565b8114610f7957600080fd5b50565b600081359050610f8b81610f65565b92915050565b6000806000806101a08587031215610fac57610fab610d14565b5b6000610fba87828801610f08565b945050610140610fcc87828801610d30565b935050610160610fde87828801610d30565b925050610180610ff087828801610f7c565b91505092959194509250565b60008115159050919050565b61101181610ffc565b82525050565b600060208201905061102c6000830184611008565b92915050565b6000819050919050565b600061105761105261104d84610f33565b611032565b610f33565b9050919050565b60006110698261103c565b9050919050565b600061107b8261105e565b9050919050565b61108b81611070565b82525050565b60006020820190506110a66000830184611082565b92915050565b600082825260208201905092915050565b7f5f6c6566742073686f756c6420626520696e7369646520746865206669656c64600082015250565b60006110f36020836110ac565b91506110fe826110bd565b602082019050919050565b60006020820190508181036000830152611122816110e6565b9050919050565b7f5f72696768742073686f756c6420626520696e7369646520746865206669656c60008201527f6400000000000000000000000000000000000000000000000000000000000000602082015250565b60006111856021836110ac565b915061119082611129565b604082019050919050565b600060208201905081810360008301526111b481611178565b9050919050565b6000819050919050565b60006111e06111db6111d6846111bb565b611032565b610cd6565b9050919050565b6111f0816111c5565b82525050565b600060608201905061120b6000830186610ce0565b6112186020830185610ce0565b61122560408301846111e7565b949350505050565b60008151905061123c81610d19565b92915050565b6000806040838503121561125957611258610d14565b5b60006112678582860161122d565b92505060206112788582860161122d565b9150509250929050565b7f4e487b7100000000000000000000000000000000000000000000000000000000600052601260045260246000fd5b7f506c656173652073656e6420607472616e7366657256616c756560204554482060008201527f616c6f6e672077697468207472616e73616374696f6e00000000000000000000602082015250565b600061130d6036836110ac565b9150611318826112b1565b604082019050919050565b6000602082019050818103600083015261133c81611300565b9050919050565b600061134e82610f33565b9050919050565b61135e81611343565b82525050565b60006040820190506113796000830185611355565b6113866020830184610ce0565b9392505050565b7f4e487b7100000000000000000000000000000000000000000000000000000000600052603260045260246000fd5b7f546865206e6f746520686173206265656e20616c7265616479207370656e7400600082015250565b60006113f2601f836110ac565b91506113fd826113bc565b602082019050919050565b60006020820190508181036000830152611421816113e5565b9050919050565b7f43616e6e6f742066696e6420796f7572206d65726b6c6520726f6f7400000000600082015250565b600061145e601c836110ac565b915061146982611428565b602082019050919050565b6000602082019050818103600083015261148d81611451565b9050919050565b600060029050919050565b600081905092915050565b6000819050919050565b6114bd81610cd6565b82525050565b60006114cf83836114b4565b60208301905092915050565b6000602082019050919050565b6114f181611494565b6114fb818461149f565b9250611506826114aa565b8060005b8381101561153757815161151e87826114c3565b9650611529836114db565b92505060018101905061150a565b505050505050565b600060029050919050565b600081905092915050565b6000819050919050565b600081905092915050565b61157381611494565b61157d818461155f565b9250611588826114aa565b8060005b838110156115b95781516115a087826114c3565b96506115ab836114db565b92505060018101905061158c565b505050505050565b60006115cd838361156a565b60408301905092915050565b6000602082019050919050565b6115ef8161153f565b6115f9818461154a565b925061160482611555565b8060005b8381101561163557815161161c87826115c1565b9650611627836115d9565b925050600181019050611608565b505050505050565b60006101408201905061165360008301876114e8565b61166060408301866115e6565b61166d60c08301856114e8565b61167b6101008301846114e8565b95945050505050565b61168d81610ffc565b811461169857600080fd5b50565b6000815190506116aa81611684565b92915050565b6000602082840312156116c6576116c5610d14565b5b60006116d48482850161169b565b91505092915050565b7f496e76616c69642077697468647261772070726f6f6600000000000000000000600082015250565b60006117136016836110ac565b915061171e826116dd565b602082019050919050565b6000602082019050818103600083015261174281611706565b9050919050565b60006117548261105e565b9050919050565b61176481611749565b82525050565b600060408201905061177f600083018561175b565b61178c6020830184610ce0565b9392505050565b7f4e487b7100000000000000000000000000000000000000000000000000000000600052601160045260246000fd5b60006117cd82610d85565b91506117d883610d85565b9250828201905063ffffffff8111156117f4576117f3611793565b5b92915050565b600061180582610d85565b915061181083610d85565b9250826118205761181f611282565b5b828206905092915050565b600061183682610d85565b915061184183610d85565b92508261185157611850611282565b5b828204905092915050565b600060ff82169050919050565b60006118748261185c565b915060ff820361188757611886611793565b5b600182019050919050565b600061189d82610cd6565b91506118a883610cd6565b92508282019050808211156118c0576118bf611793565b5b92915050565b60006118d182610cd6565b91506118dc83610cd6565b9250826118ec576118eb611282565b5b828206905092915050565b600060408201905061190c6000830185610ce0565b6119196020830184610d95565b939250505056fea26469706673582212204dc37007014d790a42741873ec40b332e4578f6908967fe387a89e54f02e242b64736f6c63430008130033",
  "immutableReferences": {
    "53": [
      {
        "length": 32,
        "start": 973
      },
      {
        "length": 32,
        "start": 1191
      },
      {
        "length": 32,
        "start": 2668
      }
    ]
  },
  "source": "pragma solidity ^0.8.19;\n\nimport \"./MerkleTree.sol\";\n\nabstract contract IVerifier {\n    function verifyProof(\n            uint[2] memory a,\n            uint[2][2] memory b,\n            uint[2] memory c,\n            uint[2] memory input\n        ) public virtual view returns (bool r);\n}\n\ncontract Mixer is MerkleTree {\n    uint256 public constant transferValue = 1;\n    mapping(uint256 => bool) public nullifiers;\n    IVerifier verifier;\n\n    event Deposit(address from, uint256 commitment);\n    event Withdraw(address to, uint256 nullifier);\n\n    constructor(address _verifier, address _hasher) MerkleTree(_hasher) {\n        verifier = IVerifier(_verifier);\n    }\n\n    function deposit(uint256 commitment) public payable {\n        require(\n            msg.value == transferValue,\n            \"Please send `transferValue` ETH along with transaction\"\n        );\n        insert(commitment);\n        emit Deposit(msg.sender, commitment);\n    }\n\n    function withdraw(uint[10] memory proof, uint256 root, uint256 nullifier, address payable receiver) public {\n        require(!nullifiers[nullifier], \"The note has been already spent\");\n        require(isKnownRoot(root), \"Cannot find your merkle root\"); // Make sure to use a recent one\n        uint[2] memory a = [proof[0], proof[1]];\n        uint[2][2] memory b = [[proof[2], proof[3]], [proof[4], proof[5]]];\n        uint[2] memory c = [proof[6], proof[7]];\n        uint[2] memory input = [proof[8], proof[9]];\n        require(verifier.verifyProof(a, b, c, input), \"Invalid withdraw proof\");\n\n        nullifiers[nullifier] = true;\n        payable(receiver).transfer(transferValue);\n        emit Withdraw(receiver, nullifier);\n    }\n}",
  "sourcePath": "/Users/nguyenthieukhang/Documents/Thesis---ZKP/contracts/Mixer.sol",
  "compiler": {
    "name": "solc",
    "version": "0.8.19+commit.7dd6d404.Emscripten.clang"
  },
  "schemaVersion": "3.4.14",
  "updatedAt": "2023-06-20T14:33:05.474Z",
  "networkType": "ethereum",
  "devdoc": {
    "kind": "dev",
    "methods": {},
    "version": 1
  },
  "userdoc": {
    "kind": "user",
    "methods": {},
    "version": 1
  }
}